{
  "contractName": "Tokensale",
  "abi": [
    {
      "inputs": [
        {
          "internalType": "contract Token",
          "name": "_token_contract",
          "type": "address"
        },
        {
          "internalType": "uint256",
          "name": "_price",
          "type": "uint256"
        }
      ],
      "stateMutability": "nonpayable",
      "type": "constructor"
    },
    {
      "anonymous": false,
      "inputs": [
        {
          "indexed": false,
          "internalType": "address",
          "name": "_buyer",
          "type": "address"
        },
        {
          "indexed": false,
          "internalType": "uint256",
          "name": "_amount",
          "type": "uint256"
        }
      ],
      "name": "Sell",
      "type": "event"
    },
    {
      "inputs": [],
      "name": "price",
      "outputs": [
        {
          "internalType": "uint256",
          "name": "",
          "type": "uint256"
        }
      ],
      "stateMutability": "view",
      "type": "function",
      "constant": true
    },
    {
      "inputs": [],
      "name": "token_contract",
      "outputs": [
        {
          "internalType": "contract Token",
          "name": "",
          "type": "address"
        }
      ],
      "stateMutability": "view",
      "type": "function",
      "constant": true
    },
    {
      "inputs": [],
      "name": "tokensSold",
      "outputs": [
        {
          "internalType": "uint256",
          "name": "",
          "type": "uint256"
        }
      ],
      "stateMutability": "view",
      "type": "function",
      "constant": true
    },
    {
      "inputs": [
        {
          "internalType": "uint256",
          "name": "_numberOfTokens",
          "type": "uint256"
        }
      ],
      "name": "buyTokens",
      "outputs": [],
      "stateMutability": "payable",
      "type": "function",
      "payable": true
    },
    {
      "inputs": [],
      "name": "endSale",
      "outputs": [],
      "stateMutability": "nonpayable",
      "type": "function"
    }
  ],
  "bytecode": "0x608060405234801561001057600080fd5b506040516109d13803806109d18339818101604052810190610032919061016c565b336000806101000a81548173ffffffffffffffffffffffffffffffffffffffff021916908373ffffffffffffffffffffffffffffffffffffffff16021790555081600160006101000a81548173ffffffffffffffffffffffffffffffffffffffff021916908373ffffffffffffffffffffffffffffffffffffffff1602179055508060028190555050506101ac565b600080fd5b600073ffffffffffffffffffffffffffffffffffffffff82169050919050565b60006100f1826100c6565b9050919050565b6000610103826100e6565b9050919050565b610113816100f8565b811461011e57600080fd5b50565b6000815190506101308161010a565b92915050565b6000819050919050565b61014981610136565b811461015457600080fd5b50565b60008151905061016681610140565b92915050565b60008060408385031215610183576101826100c1565b5b600061019185828601610121565b92505060206101a285828601610157565b9150509250929050565b610816806101bb6000396000f3fe60806040526004361061004a5760003560e01c80633610724e1461004f578063380d831b1461006b578063518ab2a8146100825780639563dceb146100ad578063a035b1fe146100d8575b600080fd5b61006960048036038101906100649190610504565b610103565b005b34801561007757600080fd5b506100806102c2565b005b34801561008e57600080fd5b50610097610497565b6040516100a49190610540565b60405180910390f35b3480156100b957600080fd5b506100c261049d565b6040516100cf91906105da565b60405180910390f35b3480156100e457600080fd5b506100ed6104c3565b6040516100fa9190610540565b60405180910390f35b34600254826101129190610624565b1461011c57600080fd5b80600160009054906101000a900473ffffffffffffffffffffffffffffffffffffffff1673ffffffffffffffffffffffffffffffffffffffff166370a08231306040518263ffffffff1660e01b8152600401610178919061069f565b602060405180830381865afa158015610195573d6000803e3d6000fd5b505050506040513d601f19601f820116820180604052508101906101b991906106cf565b10156101c457600080fd5b600160009054906101000a900473ffffffffffffffffffffffffffffffffffffffff1673ffffffffffffffffffffffffffffffffffffffff1663a9059cbb33836040518363ffffffff1660e01b81526004016102219291906106fc565b6020604051808303816000875af1158015610240573d6000803e3d6000fd5b505050506040513d601f19601f82011682018060405250810190610264919061075d565b61026d57600080fd5b806003600082825461027f919061078a565b925050819055507f5e5e995ce3133561afceaa51a9a154d5db228cd7525d34df5185582c18d3df0933826040516102b79291906106fc565b60405180910390a150565b60008054906101000a900473ffffffffffffffffffffffffffffffffffffffff1673ffffffffffffffffffffffffffffffffffffffff163373ffffffffffffffffffffffffffffffffffffffff161461031a57600080fd5b600160009054906101000a900473ffffffffffffffffffffffffffffffffffffffff1673ffffffffffffffffffffffffffffffffffffffff1663a9059cbb60008054906101000a900473ffffffffffffffffffffffffffffffffffffffff16600160009054906101000a900473ffffffffffffffffffffffffffffffffffffffff1673ffffffffffffffffffffffffffffffffffffffff166370a08231306040518263ffffffff1660e01b81526004016103d4919061069f565b602060405180830381865afa1580156103f1573d6000803e3d6000fd5b505050506040513d601f19601f8201168201806040525081019061041591906106cf565b6040518363ffffffff1660e01b81526004016104329291906106fc565b6020604051808303816000875af1158015610451573d6000803e3d6000fd5b505050506040513d601f19601f82011682018060405250810190610475919061075d565b61047e57600080fd5b3073ffffffffffffffffffffffffffffffffffffffff16ff5b60035481565b600160009054906101000a900473ffffffffffffffffffffffffffffffffffffffff1681565b60025481565b600080fd5b6000819050919050565b6104e1816104ce565b81146104ec57600080fd5b50565b6000813590506104fe816104d8565b92915050565b60006020828403121561051a576105196104c9565b5b6000610528848285016104ef565b91505092915050565b61053a816104ce565b82525050565b60006020820190506105556000830184610531565b92915050565b600073ffffffffffffffffffffffffffffffffffffffff82169050919050565b6000819050919050565b60006105a061059b6105968461055b565b61057b565b61055b565b9050919050565b60006105b282610585565b9050919050565b60006105c4826105a7565b9050919050565b6105d4816105b9565b82525050565b60006020820190506105ef60008301846105cb565b92915050565b7f4e487b7100000000000000000000000000000000000000000000000000000000600052601160045260246000fd5b600061062f826104ce565b915061063a836104ce565b9250817fffffffffffffffffffffffffffffffffffffffffffffffffffffffffffffffff0483118215151615610673576106726105f5565b5b828202905092915050565b60006106898261055b565b9050919050565b6106998161067e565b82525050565b60006020820190506106b46000830184610690565b92915050565b6000815190506106c9816104d8565b92915050565b6000602082840312156106e5576106e46104c9565b5b60006106f3848285016106ba565b91505092915050565b60006040820190506107116000830185610690565b61071e6020830184610531565b9392505050565b60008115159050919050565b61073a81610725565b811461074557600080fd5b50565b60008151905061075781610731565b92915050565b600060208284031215610773576107726104c9565b5b600061078184828501610748565b91505092915050565b6000610795826104ce565b91506107a0836104ce565b9250827fffffffffffffffffffffffffffffffffffffffffffffffffffffffffffffffff038211156107d5576107d46105f5565b5b82820190509291505056fea26469706673582212200e0f68b742b3cbb9036e661a6a9d8fd001cdbd1884b63a7538886cc7e82d50b664736f6c634300080e0033",
  "immutableReferences": {},
  "source": "//LICENSE SPDX\npragma solidity ^0.8.11;\n\nimport \"./Token.sol\";\n\n/* CONTRACT ITSELF */\ncontract Tokensale{\n/* VARIABLES (IT IS NOT PUBLIC SO PEOPLE CANNOT SEE IT) */\naddress admin;\nToken public token_contract;\nuint256 public price;\nuint256 public tokensSold;\n\nevent Sell(\n    address _buyer,\n    uint256 _amount\n);\n\n\n/* CONSTRUCTOR */\nconstructor(Token _token_contract , uint256 _price){\n/* ASSIGN AN ADMIN */\nadmin = msg.sender;\n/* TOKEN CONTRACT */\ntoken_contract = _token_contract;\n/* TOKEN PRICE */\nprice=_price;\n}\n/* BUY TOKENS FUNCTION */\nfunction buyTokens(uint256 _numberOfTokens) public payable{\n    /* AN REQUIRE */\n    require(_numberOfTokens * price == msg.value);\n    /* REQUIRE THAT THERES ENOUGH TOKENS */\n    require(token_contract.balanceOf(address(this)) >= _numberOfTokens);\n    /* REQUIRE THAT THE SELL IS SUCESSFULL */\n    require(token_contract.transfer(msg.sender,_numberOfTokens));\n    /* KEEP TRACK OF THE TOKENS SOLD */\n    tokensSold += _numberOfTokens;\n    /* TRIGGER SELL EVENT */\n    emit Sell(msg.sender,_numberOfTokens);\n}\n/* END THE SALE */\nfunction endSale() public _onlyOwner{\n/* SUICIDE */\nselfdestruct(payable(address(this)));\n}\n\n/* ONLY OWNER MODIFIER */\nmodifier _onlyOwner(){\n    /* REQUIRE IT IS THE OWNER */\n    require(msg.sender == admin);\n    /* REQUIRE IT TRANSFER ALL THE FUNDS TO THE ADMIN WALLET */\n    require(token_contract.transfer(admin, token_contract.balanceOf(address(this))));\n    _;\n}\n\n\n}",
  "sourcePath": "/home/pedromn35/Desktop/smartcontracts/Token-creation-dapp-university/contracts/Tokensale.sol",
  "compiler": {
    "name": "solc",
    "version": "0.8.14+commit.80d49f37.Emscripten.clang"
  },
  "schemaVersion": "3.4.7",
  "updatedAt": "2022-06-16T11:12:51.588Z",
  "networkType": "ethereum",
  "devdoc": {
    "kind": "dev",
    "methods": {},
    "version": 1
  },
  "userdoc": {
    "kind": "user",
    "methods": {},
    "version": 1
  }
}